:100000000C948E030C94C6030C94C6030C94C60384
:100010000C94C6030C94C6030C94C6030C94C6033C
:100020000C94C6030C94C6030C94381C0C94F41B5B
:100030000C94351D0C94C6030C94C6030C94C60393
:100040000C94C6030C94C6030C94C6030C94C6030C
:100050000C94C6030C94111D0C94C6030C94C60397
:100060000C94C6030C94C6030C94C6030C94C603EC
:100070000C94C6030C94C6030C94C6030C94C603DC
:100080000C94C6030C94C6030C94C6030C94C603CC
:100090000C94C6030C94C6030C94C6030C94C603BC
:1000A0000C94C6030C94C6030C94C6030501098086
:1000B000A101850319012AB700150126B700950192
:1000C00075108100C0050C0901A101850419012AE0
:1000D000A002150126A002950175108100C005013E
:1000E0000906A1018506050719E029E71500250184
:1000F0009508750181020507190029EF15002501F2
:1001000095F075018102050819012905950575010C
:100110009102950175039101C00660FF0961A1017B
:100120000962150026FF00952075088102096315F4
:100130000026FF00952075089102C005010906A15F
:1001400001050719E029E7150025019508750181CA
:10015000029501750881010507190029FF15002680
:10016000FF00950675088100050819012905950508
:1001700075019102950175039101C0000000000016
:10018000000000000000000000000000000000006F
:100190000000000000000000000000000000007EE1
:1001A0000F00D4FFFFFFC700000078000000000030
:1001B0000000002A2B2800000000000000000000C2
:1001C00000000000000029000000002C1E34202147
:1001D0002224342627252E362D3738271E1F20218E
:1001E00022232425263333362E37381F04050607ED
:1001F00008090A0B0C0D0E0F101112131415161707
:1002000018191A1B1C1D2F3130232D350405060724
:1002100008090A0B0C0D0E0F1011121314151617E6
:1002200018191A1B1C1D2F3130354C00010101011A
:1002300001010101010202020202020202020303A1
:100240000303030303030404040404040405050571
:100250000505060606060607070707070808080833
:10026000090909090A0A0A0B0B0B0C0C0C0D0D0DE0
:100270000E0E0E0F0F0F1010111111121213131476
:1002800014151516161717181819191A1A1B1B1CEE
:100290001D1D1E1E1F202021222223242425262648
:1002A000272829292A2B2C2D2D2E2F30313232337D
:1002B0003435363738393A3B3C3D3E3F4041424386
:1002C0004445464748494A4C4D4E4F50515354556A
:1002D0005658595A5B5D5E5F616264656668696B1A
:1002E0006C6D6F7072737577787A7B7D7E80828398
:1002F0008587888A8C8E8F91939596989A9C9EA0DC
:10030000A2A3A5A7A9ABADAFB1B3B5B7BABCBEC0E8
:10031000C2C4C6C9CBCDCFD1D4D6D8DBDDDFE2E4B1
:10032000E7E9EBEEF0F3F5F8FAFDFFE000E300E2B9
:10033000005100500021522C002152E600E10064DF
:10034000001D001B000600190005001100100039F7
:100350000004001600070009000A000B000D000E43
:10036000002B0014001A000800150017001C0018CC
:10037000000C0035001E001F002000210022002379
:10038000002400250029003A003B003C003D003ECF
:10039000003F00400041005800630062004C0056DE
:1003A0000000004F000000000058005B005A00529F
:1003B00000E500380059003700360057005E005D48
:1003C000000000280034005C0033000F005600617C
:1003D000006000310030002F005F00130012005554
:1003E000005400530031002E002D002A0027002663
:1003F000004E004B004D004600450044004A0043BB
:1004000000420001000100010001000100010001A3
:100410000001000100010001000100010003780259
:100420007804780100010002780100010001000158
:1004300000010001000100010001002078010021FD
:100440007823782478257826782778010001000120
:1004500000010001000100010001000100007C0119
:100460000001000100010001000100010001000184
:100470000001000100010001000000010000000077
:100480000001000100010001000100010001000164
:100490000001000100010001000000010001000155
:1004A0000001000100010001000100010001000144
:1004B0000001000100287801000100010001000195
:1004C00000010001000100010001000100A900A8D5
:1004D0000001000100AA000100010001000100016B
:1004E0000001000100010001000100010001000104
:1004F00000010001000100010001000100010001F4
:1005000000010001000100010001000100010001E3
:1005100000010001000100010001000100010001D3
:1005200000010001000100010001000100010001C3
:1005300000010001000100010001000100010001B3
:1005400000010001000100010001000100010001A3
:100550000000000100000000000100010001000196
:100560000001000100010001000100010001000183
:100570000000000100010001000100010001000174
:100580000001000100010001000100010001000163
:100590000001000100010001000100010001000153
:1005A0000001000100010001000100010001000143
:1005B0000001000100010001000100010001000133
:1005C0000001000100010001000100010001000123
:1005D0000001000100010001000100010001000113
:1005E0000001000100010001000100010001000103
:1005F00000010001000100010001000100010001F3
:1006000000010001000100010001000100010001E2
:1006100000010001000100010001000100010001D2
:1006200000010001000100010000000100000000C5
:1006300000010001000100010001000100010001B2
:1006400000010001000100010000000100010001A3
:100650000001000100010001000100010001000192
:100660000001000100010001000100010001000182
:100670000001000100010001000100010001000172
:10068000000100010001000100010009025B0003FC
:100690000100A0FA09040000010301010009211171
:1006A000010001224000070581030800010904013F
:1006B00000020300000009211101000122220007AD
:1006C000058203200001070503032000010904023D
:1006D000000103000000092111010001226D000743
:1006E00005840320000112010002000000084D599A
:1006F000606001000102000112034D0065006C0002
:100700006F00640079003900360000000A035900C8
:100710004D0044004B0000000403090411241FBED7
:10072000CFEFDAE0DEBFCDBF04B603FE18C0809184
:10073000170690911806A0911906B0911A068730F5
:10074000904BA740B04B59F4109217061092180620
:100750001092190610921A06E0E0F8E3099513E0EA
:10076000A0E0B1E0ECE6F5E402C005900D92AE33F6
:10077000B107D9F726E0AEE3B3E001C01D92A7317F
:10078000B207E1F70E945C1D0C9438220C94000023
:10079000482F209113069091DA0557E0291302C0E3
:1007A00080E0089530E0529FF001539FF00D112436
:1007B000E552FA4F8181681306C08081481303C057
:1007C00085818111EECF2F5F3F4F2770E7CFE8ED96
:1007D000F0E080818E7F80831092E2001092DA0038
:1007E0001092E100A0EEB0E08C9181608C9380814A
:1007F0008F77808319BCA7EDB0E08C918E7F8C93AE
:1008000080818F7E80831092AB0508952091E40053
:100810003091E50095E6A9012091EC00822F8170CE
:1008200020FF06C08091E80080FF06C080E00895A8
:100830002091E80022FD1AC08091D005882389F01C
:10084000853089F08091EB0085FD0FC02091E40098
:100850003091E50042175307F9F29150E1F684E038
:10086000089582E0089583E0089581E008958091DD
:10087000D20587FF13C08091E80082FF06C08091F7
:10088000E8008B778093E80004C08091D005811147
:10089000F2CF08958091D0058823D9F38091E800A4
:1008A00080FFF8CF8091E8008E77ECCF982F90935F
:1008B000E900242F762F50E0891731F07091EC0079
:1008C0002091ED005091F00021FD07C09F5F97300F
:1008D00071F78093E90081E008953091EB003E7F4D
:1008E0003093EB003091ED003D7F3093ED0030917F
:1008F000EB0031603093EB007093EC002093ED003F
:100900005093F0002091EE0027FDE0CF80E00895A5
:10091000B0E0A0E0EEE8F4E00C94AC21C8EDD0E04B
:1009200088818F7E8883E7EDF0E08081816080831D
:1009300084E082BF81E08093AB0588818E7F8883CD
:1009400002EE10E0F80110821092DA0081EEC82E5B
:10095000D12CF601108288818F7788838881806806
:10096000888388818F7D888319BC1092D00510926E
:10097000D1051092CF051092CE0590EEE92EF12C04
:10098000F70180818B7F808388818160888342E04A
:1009900060E080E00E945604F60180818E7F8083B3
:1009A000F801808181608083808188608083F70185
:1009B00080818E7F8083888180618883CDB7DEB718
:1009C000E8E00C94C821FC018091D8059091D905EC
:1009D00086179707A0F06115710529F49091E8003A
:1009E0009E779093E80090E06115710551F49111A4
:1009F00008C08091E80082FF34C080E00895BC0107
:100A0000F2CF8091D0058823C1F18530C1F180916A
:100A1000E80083FD30C08091E80082FDEACF80913C
:100A2000E80080FFE1CF8091F3002091F200382FA1
:100A30006115710519F02830310558F091E0283022
:100A4000310509F090E02091E8002E772093E8002E
:100A5000CBCF81918093F100615071092F5F3F4F9F
:100A6000E7CF8091D005882341F0853041F0809117
:100A7000E80083FFBECF81E0089582E0089583E01F
:100A8000089508958091AD0508959C014FB7F8949D
:100A90008091A5059091A605A091A705B091A80504
:100AA0004FBF821B930B08952FB7F8946091A50553
:100AB0007091A6058091A7059091A8052FBF089574
:100AC0002FB7F8948091A5059091A605A091A70550
:100AD000B091A8052FBF0895A3E0B0E0E2E7F5E0EC
:100AE0000C94B2212091A2053091A3052817390753
:100AF000A1F09093A3058093A205E091A005F09149
:100B0000A105309751F024E029839B838A830680D6
:100B1000F781E02DCE01019609952396E2E00C9431
:100B2000CE21A3E0B0E0E7E9F5E00C94B2212091FA
:100B30009E0530919F0528173907A1F090939F05D6
:100B400080939E05E091A005F091A105309751F0AA
:100B500023E029839B838A830680F781E02DCE01E1
:100B6000019609952396E2E00C94CE21E091A00530
:100B7000F091A105309729F00190F081E02D0995C1
:100B8000089580E00895FA01811101C0FB010995E3
:100B90000895ECE3F4E0818360834283339695E02B
:100BA000EE39F907C1F70895FC01EE0FFF1FE80FBA
:100BB000F91FE45CFB4F6183408322830895E4E3E3
:100BC000F4E0248130E1231B08F420E024838091A9
:100BD00033048160809333040895E4E3F4E02481D6
:100BE00030E1230F08F42FEF2483809133048160D8
:100BF00080933304089590913404937071F080933E
:100C0000350460933604413508F040E540933704DD
:100C100080913304822B809333040895E4E3F4E05D
:100C2000438120E1421B08F440E0818121E06281A0
:100C300090E00E94FB050895E4E3F4E0438120E1A5
:100C4000420F08F44FEF818121E0628190E00E9421
:100C5000FB050895E4E3F4E0628120E1621B08F4FF
:100C600060E0818121E0438190E00E94FB050895CE
:100C7000E4E3F4E0628120E1620F08F46FEF818128
:100C800021E0438190E00E94FB050895E4E3F4E055
:100C9000818121E0438162818850990B0E94FB058C
:100CA0000895E4E3F4E0818190E021E043816281F2
:100CB00008960E94FB05089590913404937061F0AA
:100CC00081110BC094609093340410920D018091B7
:100CD0003304862B809333040895833010F098609A
:100CE000F2CF880F880F982BEECF80913404869531
:100CF0008695815009F482E061E00E945C060895C7
:100D000080913404869586958F5F833008F081E06A
:100D100061E00E945C06089580913404837011F0B4
:100D200010920D01809134048C7F809334040895D7
:100D30000E94C905089580E00895F894E82FE2958F
:100D4000EF70F0E031A1282F2F7081E090E001C01A
:100D5000880F2A95EAF7982F9095932391A392A153
:100D6000892B82A3789408959091A90592FF06C0DB
:100D7000282F28712830F9F4877F846093FF06C0FC
:100D8000282F28712831F1F4877E84612091AA05EB
:100D900020FF06C0382F38713830D9F4877F816042
:100DA00021FF06C0282F28712831D1F4877E816168
:100DB00094FD877E0895282F24712430F9F68B7FC7
:100DC0008860DCCF282F2471243101F78B7E886165
:100DD000DDCF382F3171313019F78E7F8860E0CF49
:100DE000282F2171213121F78E7E8861E1CF823851
:100DF0009105B9F1B0F48133910509F47DC048F44F
:100E00008932910509F46DC08A32910509F47BC0DD
:100E100008958533910509F45FC08933910509F17F
:100E20000895833E9105D9F138F4803E910529F16A
:100E3000823E910579F10895863E9105D9F1873E6C
:100E4000910509F43EC0843E910541F52091AA0523
:100E500021FF24C08091A90584FD19C087EE90E090
:100E600008952091A905237009F05AC02091AA0580
:100E700023FF14C089E290E008952091A90520FD88
:100E800038C03091AA0530FF09C024FF43C090E06C
:100E900080E008952091A90522FDF7CF08952091C3
:100EA000A90522FD3AC03091AA0530FD39C024FFC2
:100EB000F5CFEDCF2091A90523FFF0CF24FDE7CF9B
:100EC000CDCF2091A90523FD2EC03091AA0531FF79
:100ED000EECF84EE90E008952091A90525FFDECFA6
:100EE000C9CF2091A90525FD21C02091AA0523FF86
:100EF000D5CF89E390E0D2CF2091A90526FFCECFB0
:100F00008AE290E008952091A90526FFC7CF81E3EA
:100F100090E0089583EE90E0089582EE90E00895C9
:100F200080EE90E0089586EE90E0089585E390E0ED
:100F300008951F93CF93DF930E94F706EC01C1152C
:100F400080E5D807F0F5C11580E4D80708F09CC00B
:100F5000C03ED10520F5CD3CD10508F082C0C83A8D
:100F6000D10578F4C53AD10508F073C0C130D10578
:100F700019F1209709F1C430D105F0F4D0E0C0E0B8
:100F80001BC0C33CD105D0F7C85AD0E0CC0FDD1F41
:100F9000CB5EDE4F0990D881C02DD4640DC0C11541
:100FA00080E2D80708F0D1C0C11581E0D80708F069
:100FB0005AC0C83ED10510F7CE01DF91CF911F91E5
:100FC0000895C03682E5D80718F5C03482E5D80701
:100FD00008F06BC0C03282E5D80708F05FC0C115C9
:100FE00082E5D80708F497C02C2F2695269580E235
:100FF000289F900111248C2F8370C1E0D0E002C0A3
:10100000CC0FDD1F8A95E2F7C22BD32BDD68D4CF3E
:10101000C03A82E5D80760F4C03882E5D80708F402
:1010200059C0CF71D0E0DC2FCC27C46FD06AC4CFB9
:10103000C03C82E5D80708F462C0C03E82E5D8070C
:1010400008F09CCFDC2FCC27CC27DF71C06FD06A93
:10105000B3CFC55AD0E0CE5EDE4FC881D0E0D064B9
:10106000ABCFD065A9CF8D2F0E94B406182FCE012B
:1010700099270E94F706C12FD0E0DC2FCC27CC2780
:10108000DF71C82BD92B98CFCE0199270E94F70684
:10109000CC27DF70C82BD92BD06A8ECFCF71D0E090
:1010A000DC2FCC27C16FD06A87CF2C2F26952695B1
:1010B000277080E2289F900111248C2F8370C1E05B
:1010C000D0E002C0CC0FDD1F8A95E2F7C22BD32BF4
:1010D000DC6872CF2C2F26952695277080E2289FFA
:1010E000900111248C2F8370C1E0D0E002C0CC0F9E
:1010F000DD1F8A95E2F7C22BD32BDA685DCF8C2FE8
:101100008F710E94B406C82FD0E0DC2FCC27CC27EB
:10111000DF71D06251CF8C2F8F710E94B40655E0E1
:10112000D695C7955A95E1F7CF70D0E0DC2FCC2744
:10113000282F30E084FF05C044E0220F331F4A957A
:10114000E1F7C22BD32BD06937CF8D2F8F710E943F
:10115000B406182FCE0199270E94F706C12FD0E0C0
:10116000DC2FCC27CC27DF71C82BD92BD2CF809591
:101170009091B60398239093B603089590910E0131
:101180009923D1F09091A90597FF16C0E82FE69515
:10119000E695E695EE31E0F4F0E0E05CFC4F282FB8
:1011A000277081E090E001C0880F2A95EAF78095CA
:1011B0009281892382830895E2E4F3E09191891377
:1011C00003C0DF0111971C9293E0E834F907B1F7EF
:1011D000089590910E019923C1F09091A90597FF70
:1011E00014C0E82FE695E695E695EE31F8F4F0E0C8
:1011F000E05CFC4F877021E030E001C0220F8A954F
:10120000EAF78281822B82830895A2E4B3E0EFEFB4
:1012100090E02D91821751F0EF3F19F4211101C098
:10122000E92F9F5F9630A9F7EF3F09F408950E2E3E
:10123000000CFF0BE05CFC4FE6CF80911306909111
:10124000DA05981301C008958F5F8770FACF292FB0
:101250009C3078F5893068F590E039E0239F800D67
:10126000911D1124682F677023E0969587952A9524
:10127000E1F7FC01EE0FFF1FE80FF91FEE59FC4FDD
:1012800050E040E080E0219130E0062E02C036952B
:1012900027950A94E2F721703327042E01C0220F0C
:1012A0000A94EAF7822B4F5F5F4F4330510559F79D
:1012B000089580E00895292F9C3098F5893088F5AD
:1012C00090E039E0239F800D911D1124282F277075
:1012D00041E001C0440F2A95EAF723E096958795EF
:1012E0002A95E1F7FC01EE0FFF1FE80FF91FEE59F9
:1012F000FC4F30E020E070E05191DF011197CB010D
:10130000022E02C0969587950A94E2F78170819526
:101310008527842385278C932F5F3F4F233031050A
:1013200059F708958093D50308959091D50321E04E
:1013300030E0F90101C0EE0F8A95EAF7D90102C049
:10134000AA0FBB1F6A95E2F7EA2B01C0220F4A954C
:10135000EAF7892F8E23E81305C0292B822F0E94DC
:101360009209089520952923F9CF21E030E001C0AA
:10137000220F8A95EAF720958091D50382230E9457
:101380009209089590919303809589238093930304
:10139000282F277069F4891759F09091AA0592FFB8
:1013A00007C08695869586950E94B509109293038D
:1013B000089521E030E001C0220F8A95EAF780917C
:1013C000D503822B0E94920908958093B703089554
:1013D000809580FF09C0469A81FF08C0479A82FF26
:1013E00007C02D9A81E008954698F6CF4798F7CF29
:1013F0002D98F8CF0F931F93CF93DF938B01EA01C2
:101400009091D005943061F58093E9008FEF909131
:10141000E800815095FD06C095ED9A95F1F7000022
:101420008111F5CF8091E80085FF1AC00E94060463
:10143000811111C08091E80085FD06C08091E8000F
:101440008E778093E800F2CFF80181918F0180932D
:10145000F100219779F78091E8008E778093E8007A
:10146000DF91CF911F910F91089543E050E0BC01AF
:1014700084E00E94FA090895CF93DF93EC018091F4
:101480000E01811111C048E050E0BE0181E00E94D0
:10149000FA0980E2FE01AEEAB5E001900D928A956C
:1014A000E1F7DF91CF9108958091A90587FF05C0ED
:1014B00040E284E050E0BE01EACF48E081E0FACFAC
:1014C00081E08093E00080E28093D8001092C90010
:1014D0008FE19EE40197F1F700C0000087E090EBF8
:1014E000DC018093170690931806A0931906B09319
:1014F0001A0688E19CE00FB6F894A89580936000E6
:101500000FBE90936000FFCF6A9A3EB13B7F2EB131
:1015100024604FB7F8948CE394E0FC015191CF0123
:1015200068E02EB9000000C057FF3EB9550F00001B
:1015300000C000C000C03EB900C06A9591F7F5E058
:101540008E399F0751F74FBF8FE594E00197F1F770
:1015500000C000000895CF93DF93C9E8D3E060E0B6
:10156000CE010E9407222196C11584E0D807B9F761
:10157000DF91CF9108951F93CF93DF93122F843083
:10158000E0F46C30D0F44930C0F4C42FD0E0CC0F7C
:10159000DD1F92E1699FC00DD11D112498ED899F37
:1015A000C00DD11D1124632FCE0189960E94072200
:1015B000612FCE018A960E940722DF91CF911F9161
:1015C0000895AF92BF92CF92DF92EF92FF921F9356
:1015D000CF93DF938BE2C82E83E0D82ED0E0760144
:1015E000C0E014C0F50125913491412F6C2F8D2F4F
:1015F0000E94BB0A82E0A80EB11C1F5F193091F750
:1016000082E1E80EF11CCF5FCC3019F0570110E0F9
:10161000E9CFDF5F88EDC80ED11CD43001F7DF9130
:10162000CF911F91FF90EF90DF90CF90BF90AF9040
:101630000895CF93C82F6FEF811163E285E290E0A8
:101640000E9407226FEFC11165E086E290E00E94E0
:1016500007226FEFC11160E387E290E00E9407224A
:10166000CF91089580E00E94190B60E088E290E03D
:101670000E9407220E94E10A0E94AB0A81E00E94B8
:10168000190B08950F931F93CF93DF93843030F598
:101690006C3020F5493010F5C42FD0E0CC0FDD1FA1
:1016A00022E1629FC00DD11D112438ED839FC00D32
:1016B000D11D1124CE0189960E94E921082F10E046
:1016C000102F0027CE018A960E94E9219801282B2D
:1016D000C901DF91CF911F910F91089590E080E0B3
:1016E000F8CF462F7C3040F4693030F4843020F459
:1016F000672F0E94420B089590E080E00895CF92FA
:10170000DF92FF920F931F93CF93DF936C010091B1
:10171000D5038091B703082BC3E0D0E010E0FC2E86
:10172000C8010C2E02C0959587950A94E2F780FDBA
:101730000CC02197A0F7F12C8F2DDF91CF911F9135
:101740000F91FF90DF90CF900895B6018C2F0E94EB
:10175000710B0E949907019761F3EECFCF93DF934E
:10176000EC010E947F0BBE010E94710B0E94990741
:10177000DF91CF910895FC0124812223C1F0808163
:1017800091810E94AE0B92959F70963091F058F423
:10179000925F9F70923058F4803F19F030F4883E89
:1017A00030F481E008959A5FF4CF843FD1F380E074
:1017B0000895883EB0F3813FD1F7F3CFA6E0B0E0C3
:1017C000E4EEFBE00C94B12149835A8349815A81AC
:1017D0009923A1F0222391F0CA010E947F0B182FB8
:1017E000682F89819A810E945B0969817A81812FA2
:1017F0000E94710B2696E3E00C94CD21CA010E9451
:101800002709182FF2CF85E290E00E94E921833268
:1018100089F486E290E00E94E921853059F487E25C
:1018200090E00E94E92191E0803309F090E0892F57
:101830008170089580E0FCCF48E050E068E170E0FE
:1018400084E394E00E94F721109233040895B0E0FD
:10185000A0E0EDE2FCE00C94A7210E945405609307
:101860002B0470932C0480932D0490932E043091BC
:101870003404D32FD37019F0D32FD695D695209159
:101880000D012130D9F0222359F0223009F410C182
:10189000233009F416C1CDB7DEB7EDE00C94C321B7
:1018A00010920A0160932F047093300480933104E6
:1018B0009093320481E080930D01EDCF9091090166
:1018C00081E0D9130BC0832F83702091080130E091
:1018D00091E08217130609F490E0892F81708093BC
:1018E0000C018091390490910B01981739F0809385
:1018F0000B0140E060E080E00E949806D13089F062
:10190000DD2329F0D23009F4C7C080E02DC08091DA
:101910000C01882349F140E060E080E00E949806D5
:10192000F4CF90900A0188E1989E902C112408E150
:10193000090D802E073710F026E7822E40913504DE
:10194000D0903604E0913704F0E0E55DFD4FD11012
:101950001DC0F4901F2DCF2DC92CD12CC81408F414
:1019600089C081E0063788F690910A019F5F9093C5
:101970000A01811190CF82E080930D0180910C01CA
:10198000811189CFD11187CF83E095CFED2CF12C38
:10199000C4917C2EEC2FF0E026E0429FC001112480
:1019A0002FEF30E0B9010E948121842F90E0880F51
:1019B000991FA5E5A69FA001A79F500D1124841B88
:1019C000950BC82ECC0CC80ED901AE19BF09AE9F1D
:1019D000A001AF9F500DBE9F500D1124152FDC9C10
:1019E000D0011124AB2FBB27C9018A1B9B0B8E9FF3
:1019F000D0018F9FB00D9E9FB00D11245901AC18DE
:101A0000B108AE9C6001AF9CD00CBE9CD00C1124E0
:101A1000CD2CDD242C193D092E9FC0012F9F900D48
:101A20003E9F900D1124F92E62307105A1F050F403
:101A30006115710509F490CF6130710581F0F52EC3
:101A40001B2F8ACF6430710569F080F06630710514
:101A500009F482CFF4CFFC2EC52F192F7DCFFC2E99
:101A6000CB2F7ACFF52E1C2FC92F76CFC52F172D50
:101A7000FB2E72CFF601E854FD4F808190910B014F
:101A8000892331F0212F4F2D6C2FC6010E94D405E0
:101A90008FEFC81AD80A62CF90910A0188E1989F07
:101AA000800D1124982F81E0963708F45DCF2DCF5B
:101AB000D0930901832F8370809308010E94840AC8
:101AC00063CF8091330481110E941C0C40912F043C
:101AD0005091300460913104709132042FB7F89422
:101AE0008091A5059091A605A091A705B091A805A4
:101AF0002FBF841B950BA60BB70B4097A105B10513
:101B000008F4C9CE10920D01C6CEE4E3F4E085E0FE
:101B1000808380910F0190911001A0911101818328
:101B20009283A3838FE784838FEF85830E941C0CAD
:101B300008959091AA0592FB222720F9281779F0A1
:101B400080FB92F99093AA056091A9057091AA056E
:101B500084E090E00E94252282E00E94C20908955C
:101B600090E080E00E94F121863E9E4F19F40E9491
:101B7000030C089580E008958091B6039091B50319
:101B8000892B809340039091B4039923A1F0892B72
:101B90008093400380910E018823E1F18091A90593
:101BA00087FF38C08EE1E2E4F3E090E08150A0F5D9
:101BB00091111092B40340E250E064E973E080E4D4
:101BC00093E00E942B22892B21F180E2E0E4F3E0F4
:101BD000A4E9B3E001900D928A95E1F7E091A005A8
:101BE000F091A1053097A9F080910E01882359F05A
:101BF0008091A90587FF07C080914003809341032E
:101C000086E0809340030280F381E02D80E493E03E
:101C10000995089586E0C7CF2191222339F29F5F6D
:101C2000C5CF1092B60380910E01E2E4F3E0882361
:101C3000B1F08091A90587FF12C08EE1DF011D92EE
:101C40008A95E9F790E080E00E94910590E080E0BD
:101C50000E946C051092B5030E94BC0D089586E0A9
:101C6000EDCFAAE2B0E0E7E3FEE00C94B12182ED13
:101C700095E02091F100DC012D93CD01B5E08A3D86
:101C80009B07B9F78091D305833009F472C0B8F48B
:101C9000813009F449C0823009F4B3C08091E80072
:101CA00083FF8BC28091D2059091D3059A3008F0C2
:101CB00084C2E92FF0E0E65CFD4D0C9495218A305A
:101CC00009F48EC08B3009F471C0893039F78091E6
:101CD000D205813219F78091D6059091D7050097EA
:101CE00011F00297D9F68091E800877F8093E80091
:101CF0008091E80082FF38C09091F3008091F2005B
:101D0000029731F48091F100813011F0863021F496
:101D10008091F1008093AD058091E8008B778093EE
:101D2000E8000E943704BACF8091D205813A09F0C9
:101D3000B5CF8091E800877F8093E8008091D60539
:101D40009091D705892B61F460E28EEA95E070E00E
:101D50000E94E3048091E8008B778093E8009ECF97
:101D600060E090E080E0F3CF8091D0058111C0CF9A
:101D700095CF8091D205813A09F090CF8091D60518
:101D80009091D705892B09F089CF8091E800877F52
:101D90008093E8008091E80080FFFCCF80910E01E5
:101DA0008093F1008091E8008E77B9CF8091D205C1
:101DB000813209F073CF8091D6059091D705892B98
:101DC00009F06CCF8091E800877F8093E8000E9443
:101DD00037048091D40580930E010E94110E5ECFCE
:101DE0008091D205813209F059CF8091E800877F38
:101DF0008093E8000E9437048091D5058093AC055C
:101E00004DCF8091D205813A09F048CF8091E8000A
:101E1000877F8093E8008091E80080FFFCCF80916D
:101E2000AC05BECF803899F0823809F0C6C18091E8
:101E3000D6058F70873008F0C0C18093E90080918B
:101E4000EB0085FB882780F91092E90006C080919D
:101E5000CE059091CF05911182609091E800977F17
:101E60009093E8008093F1001092F1008091E800D7
:101E70008E779FC1882309F48DC1823009F09DC1FE
:101E80008091D405811190C18091D6058F702FEF7C
:101E9000280F263008F091C18093E9002091EB00D3
:101EA00020FF82C1933031F48091EB0080628093F7
:101EB000EB007AC19091EB0090619093EB0021E0F0
:101EC00030E001C0220F8A95EAF72093EA001092D1
:101ED000EA008091EB008860EACF81116EC1109119
:101EE000D4051F778091E3008078812B8093E300F5
:101EF0008091E800877F8093E8000E9437048091FA
:101F0000E80080FFFCCF8091E30080688093E300CD
:101F100082E0111183E08093D0054FC18058823058
:101F200008F04BC12091D4053091D5052C3DE3E05C
:101F30003E07A1F583E08A838AE289834FB7F8944C
:101F4000DE01139620E03EE051E2E32FF0E05093F3
:101F50005700E49120FF03C0E295EF703F5FEF7000
:101F60008E2F90E0EA30C0F0C7968D939D932F5F3F
:101F7000243159F74FBF8091E800877F8093E800B4
:101F80006AE270E0CE0101960E94E3048091E800CD
:101F90008B778093E80011C1C096E7CF8091D6057A
:101FA0009091D705432F55274330510509F44AC076
:101FB00078F54130510509F47AC08BE590E0EBE803
:101FC000F6E04230510509F0F8C02091E800277F83
:101FD0002093E8002091D8053091D9058217930706
:101FE00008F49C0140E02115310509F065C041115C
:101FF00063C08091E80082FDC9CF8091D00588231D
:1020000029F2853019F28091E80083FFF2CFBECF2C
:102010004132510509F43CC04232510509F0CDC0AE
:102020008330910508F0C9C0FC01EE0FFF1FEF5C83
:10203000FC4F0190F081E02D825D9C4FDC018C9182
:1020400090E01AC0332721303105D1F02115310538
:1020500061F02230310509F0B0C0E8EFF6E0E4911C
:102060008E2F90E0E8EFF6E007C0E8E1F7E0E491BA
:102070008E2F90E0E8E1F7E0009709F49EC0A5CF2D
:10208000ECE0F7E0E4918E2F90E0ECE0F7E0F4CFA5
:102090008330910508F091C0880F991FFC01E95C1D
:1020A000FC4F0190F081E02D89E090E08ECF82E13D
:1020B00090E0E6EEF6E089CF8091D005882309F420
:1020C00065CF853009F462CF8091E80083FD5ECF53
:1020D0008091E80082FD8DCF8091E80080FF83CF62
:1020E0009091F3008091F2002115310519F08830AC
:1020F000910550F041E0089709F040E08091E80038
:102100008E778093E8006FCF44914093F100319631
:10211000215031090196E8CF803809F04EC08091F6
:10212000E800877F8093E8008091D1058093F100DB
:102130009DCE811142C01091D4051230F0F58091EE
:10214000E800877F8093E8001093D1050E94370450
:10215000112311F084E005C08091E30087FDFACFE0
:1021600081E08093D00542E061EC81E00E9456045A
:1021700042E261EC84E00E94560442E261EC82E0BB
:102180000E94560442E260EC83E00E945604809173
:10219000D00513C08091D405813079F481E093306B
:1021A00009F080E08093CF051092E9008091E8006B
:1021B000877F8093E8000E9437048091E80083FFC6
:1021C0000AC08091E800877F8093E8008091EB004F
:1021D00080628093EB00AA96E3E00C94CD210E94EC
:1021E000110E2FEF84E39CE0215080409040E1F7F6
:1021F00000C0000088E19CE00FB6F894A895809399
:1022000060000FBE90936000FFCF882321F00E94F2
:10221000B7080E94BC0D0895882339F09091B60349
:10222000982B9093B6030E94BC0D0895882309F45F
:102230004DC0823879F40E94B60581FF47C089E31A
:102240000E94E9080E94BC0D89E30E94BE080E941A
:10225000BC0D0895833859F40E94B60580FF36C03E
:1022600083E50E94E9080E94BC0D83E5EECF843827
:1022700059F40E94B60582FF29C087E40E94E9084C
:102280000E94BC0D87E4E1CF9CEF980F913AE8F2F1
:1022900090E2980F983050F4877091E001C0990F48
:1022A0008A95EAF7892F0E94B708D1CF9BE5980F4E
:1022B000933028F490E080E00E9491050895885AB8
:1022C0008B3120F490E080E00E946C050895CF935C
:1022D000C82F8823C9F08238C9F40E94B60581FD51
:1022E00013C089E30E94E9080E94BC0D2FEF87EE1E
:1022F00093E0215080409040E1F700C0000089E366
:102300000E94BE080E94BC0DCF9108958338A1F4AD
:102310000E94B60580FDF8CF83E50E94E9080E947F
:10232000BC0D2FEF81EE94E0215080409040E1F70A
:1023300000C0000083E5E4CF8438A1F40E94B60514
:1023400082FDE2CF87E40E94E9080E94BC0D2FEFD6
:1023500081EE94E0215080409040E1F700C0000001
:1023600087E4CECF8CEF8C0F813A88F580910E01F7
:10237000882301F18091A90587FF1CC0EC2FE69509
:10238000E695E695F0E0E05CFC4F828190E04C2F12
:10239000477021E030E002C0220F331F4A95E2F778
:1023A00082239323892B79F08C2F0E94BE080E94F0
:1023B000BC0D09C0E2E4F3E08191C817A9F323E062
:1023C000E834F207C9F78C2F0E94E9089BCF80E21E
:1023D0008C0F883068F4C77021E030E001C0220F14
:1023E000CA95EAF78091B603822B8093B6038ACF11
:1023F000EBE5EC0FE33040F4F0E0EE5EFE4F808161
:1024000090E00E94910580CFC85ACB3108F07CCF74
:10241000EC2FF0E0EE0FFF1FEB5EFE4F808191810D
:102420000E946C0571CF1F93CF93DF93182FD0E0DC
:10243000C0E0893311F4C0E5D0E0812F0E9467111C
:10244000209739F4812F0E941611DF91CF911F91AF
:1024500008958FE99FE00197F1F700C000002197F0
:10246000EFCF0F931F93CF93DF93C62FD42F022F5D
:10247000FC0185818823A9F0609316060E946005FF
:102480009093150680931406C77081E001C0880FF1
:10249000CA95EAF70E940C11DF91CF911F910F911D
:1024A000089580911606681332C0809114069091A9
:1024B00015060E944505883C910548F510E21D0F60
:1024C000CD17B9F080E28C0F883040F4C77081E0FE
:1024D00001C0880FCA95EAF70E940511183048F428
:1024E00081E09D2F977001C0880F9A95EAF70E94AE
:1024F0000C11802F0E941312183070F6D77081E0F3
:1025000001C0880FDA95EAF70E940511C5CFC770A0
:1025100081E001C0880FCA95EAF7F6CFA8E0B0E0E5
:10252000E4E9F2E10C94A4218C01DC0114968C9175
:102530001497882309F4C7C021E04C9111965C914F
:10254000119712966C91129713967C91139715968A
:102550009C910E94DE0B7C0187E190E00E94E921C2
:10256000F8019581813051F4992309F445C1809196
:10257000EF03883C18F48E5F8093EF03992309F4EE
:102580003BC1C70197578038910508F070C5FFE03F
:10259000FE1508F489C08FEF93E00E94E9218111B4
:1025A00083C069E8A62E63E0B62EE11047C0FE01A5
:1025B000339686E0DF011D928A95E9F75AE0452EB1
:1025C0007501BFEFEB1AFB0AC5010E94E92189835F
:1025D0001A82882309F468C0813009F078C0650147
:1025E000E2E0CE0ED11CC7010E94E9218A83882334
:1025F00009F45AC09FEF980F933070F5F3E0AF0ED7
:10260000B11CC6010E94E9218B83882309F44CC0C8
:102610001C82DE0111967D01F7012081222381F2C7
:10262000213009F094C091818281913009F051C02C
:10263000F2E0EF0EF11C0E94131252C0A11424E02C
:10264000B20691F1C5010E94E921811101C0EA940D
:102650003FEFA31AB30AA9CF56018430D1F642E066
:10266000E42EF12C56012FEFA21AB20AC6010E94E5
:10267000E921E1E0F0E0EC0FFD1FEE0DFF1D80838E
:10268000882391F08C3741F4E2E0F0E0EC0FFD1F7D
:10269000EE0DFF1D1082BDCF3FEFE31AF30A650177
:1026A00087E0E816F104F1F680919303877059F002
:1026B000F8018581882339F08091AA0582FF03C043
:1026C00082E00E94C2092896E0E10C94C0215701E3
:1026D000A0CF923049F422E0E20EF11C0E94671173
:1026E000EFEFEE1AFE0A98CF933031F432E0E30EAA
:1026F000F11C0E941611F4CF943021F08FEFE81AEC
:10270000F80AEECF92E0E90EF11C30E020E0B701CC
:102710006F5F7F4FD70111964C918053990B8A3090
:10272000910550F021503109D8F2EFE9FFE03197DF
:10273000F1F700C00000F6CF429EF001439EF00D7D
:1027400011249C012E0F3F1F842F7B01E0CFE22F2D
:10275000F0E0E555FE4F5490822F8695869586953C
:1027600090E0FC01E556FE4F64902770712C022E1C
:1027700002C0759467940A94E2F731E063227724EB
:10278000FC01E557FE4F8490912C022E02C09594D7
:1027900087940A94E2F7A1E08A229924FC01E55883
:1027A000FE4FC490D12C02C0D594C7942A95E2F76D
:1027B000B1E0CB22DD246114710419F081EE0E9496
:1027C00067118114910419F086EE0E946711852D1E
:1027D0000E9413128114910419F086EE0E941611C2
:1027E0006114710419F081EE0E941611C114D10414
:1027F00009F476CF8CE21FCFF701E851FC47E730B0
:10280000F10508F020C4EC5BFD4D0C94952126E207
:1028100041EE61EEC8010E94311246CF27E245EE3B
:1028200065EEF8CF26E241EE60EEF4CF27E245EE0A
:1028300064EEF0CF26E241EE62EEECCF27E245EE09
:1028400066EEE8CF28E241E0EBCF8091A9058160F8
:102850008093A90595C08091AA0588608093AA05F8
:102860008FC08091A9058260F3CF8091A905846013
:10287000EFCF8091A9058860EBCF8091AA05816098
:10288000EDCF8091AA058260E9CF8091A905806192
:10289000DFCF8091A9058062DBCF8091A90580649C
:1028A000D7CF0E94110E8091A9058068D1CF809169
:1028B000A9058C60CDCF8091AA058360CFCF809190
:1028C000A9058E7FC5CF8091AA05877FC7CF80914C
:1028D000A9058D7FBDCF8091A9058B7FB9CF809150
:1028E000A905877FB5CF8091AA058E7FB7CF80914C
:1028F000AA058D7FB3CF8091A9058F7EA9CF809146
:10290000A9058F7DA5CF8091A9058F7BA1CF0E94BE
:10291000110E8091A9058F779BCF8091A905837FA8
:1029200097CF8091AA058C7F99CF8091A90582FBD2
:10293000992790F921E0922790FB82F990FB83F987
:1029400087CF8091AA05982F909591708E7F892BC3
:1029500090FB81F983CF9091A905892F8F7B96FFFA
:10296000806476CF0E94110E9091A905892F97FB64
:1029700087F980586DCF61E08EE090E00E940722D9
:102980006091A9057091AA0584E090E00E9425223B
:102990000E94110E89CE60E0EFCF9091A905892F9A
:1029A0008F7E94FF806154CF9091A905892F8E7FEF
:1029B00090FF81604DCF9091AA05892F877F93FF6B
:1029C00088604CCF85E33AC380916003811104C0D5
:1029D00089E20E94BE0834C385E3FBCFF7E7EF1618
:1029E000FCE7FF0609F0ECC281E00E94D90943E050
:1029F00062E081E00E94950957CE8091340491E015
:102A000089278093340410920D01809133048160F2
:102A10008093330449CE45E756E060E876E00E94B3
:102A2000C30542CE40E856E065E776E0F8CF46E4DD
:102A300056E061E576E0F3CF41E556E066E476E006
:102A4000EECF4AE256E068E376E0E9CF48E356E0AD
:102A50006AE276E0E4CF4EE056E06CE176E0DFCF6C
:102A60004CE156E06EE076E0DACF4FED55E06DEEEA
:102A700075E0D5CF4DEE55E06FED75E0D0CF61E05C
:102A800081E00E945C0610CE27E7E2162CE7F206F2
:102A900009F456C038E7E3163CE7F30609F454C0DE
:102AA000D80115968C911597ED90FC90882309F428
:102AB00080C0C7010E947F0BD82E682FC7010E94DB
:102AC0005B09B7018D2D0E94710B0E9499077C0153
:102AD000882EF801A580968092943FE09322809101
:102AE00093038770F1F0CA2CAA20E1F08F2D807F2C
:102AF000803451F080E28E0D883098F0911004C03F
:102B00008F2D807E803269F08091AA0582FF09C0F6
:102B100082E00E94C209809193038770CC24C39401
:102B20008111C12CBF2CB2942FE0B222FBE0FB1527
:102B300008F4A8C0EB2DF0E0E55BFD4D0C94952169
:102B400081E00E94B50953CF82E0FBCFFBE5EF1691
:102B5000FCE7FF0661F12CE5E2162CE7F206E9F04E
:102B60003AE5E3163CE7F30609F09ACF81E01CC092
:102B70006FEF7FEF90E080E00E9425220E94EF102F
:102B800087E190E00E94E92160E0813009F061E096
:102B900087E190E00E94072287CD8091AA0582FB01
:102BA000882780F991E089270E94990D79CF80E0EC
:102BB000FBCFC7010E942709D82E83CF2F2D2F705E
:102BC000D22E8F2D807F19F0D29490EFD922AA2097
:102BD000B9F0DD2069F080E28E0D883010F08110B0
:102BE00009C08091B603D82AD092B6030E94BC0DCA
:102BF0008E2D46C08091B503D82AD092B503F6CF6A
:102C00008E2D0E941611DD20E9F180E28E0D8830B4
:102C100010F0811004C08D2D0E94B70806C0D0941A
:102C20008091B503D822D092B5030E94BC0D2AC072
:102C30003F2D3F70D32E8F2D807F803219F0D2949C
:102C400080EFD822882059F081E0881609F484C0EA
:102C5000AA2009F490C0992009F452C0C9CF8091EC
:102C6000AA0582FD49C0AA2009F440C0DD2039F040
:102C70008091B603D82AD092B6030E94BC0D80E0A2
:102C80000E946711AB2DA850BB0B149720F40E9433
:102C9000B6050E94E809CC20A9F08091930380FD3D
:102CA00011C0F80115828695869586950E94D909EE
:102CB000C8010E948E128091930386958695869511
:102CC0000E94B50920E0D8014C9111965C911197B2
:102CD00012966C91129713967C91139714968C917F
:102CE000149715969C910E94DE0BEDCC80E00E941B
:102CF0001611DD2039F28FCFAA20A1F0911004C067
:102D00008D2D0E940C11BECF91E09912BBCF809106
:102D1000B4039D2D9823D91609F4B4CFD82AD092A4
:102D2000B403B0CF9110AECF8D2D0E9405119091BC
:102D3000B4038D2D892329F08D2D809589238093CF
:102D4000B403809161039D2D982309F49BCFD09407
:102D5000D822D092610396CFAA2029F0A5E0A91528
:102D600008F490CFCDCFB4E0B91508F48BCF8D2DFA
:102D70000E94051187CF9920D1F3E9E38E1209C093
:102D8000FFEF27EE33E0F15020403040E1F700C084
:102D900000008E2D0E94161175CF8F2D8695869579
:102DA000837061F0813009F06DCFC7019370A1107D
:102DB00002C080E090E00E946C0564CFC701937070
:102DC000A11002C080E090E00E9491055BCF8F2DA2
:102DD000837091F5A11056CF4E2D429546954770C0
:102DE000440F440F8E2D8F70042E01C0880F0A945B
:102DF000EAF72E2D2071E4FE07C02FE030E001C07D
:102E0000220F4A95EAF720953F2D36953695337077
:102E1000323069F050F44091B703313029F0822B01
:102E200084230E94E5092ECF842B822BFACF282BF6
:102E30008091B7038227F5CF8695AA2011F08F2DB8
:102E40008170882309F41ECF4E2D42954695477018
:102E5000440F440F8E2D8F70042E01C0880F0A94EA
:102E6000EAF72E2D2071E4FE07C02FE030E001C00C
:102E7000220F4A95EAF720953F2D36953695337007
:102E8000323069F050F44091D503313029F0822B73
:102E900084230E949209F6CE842B822BFACF282B12
:102EA0008091D5038227F5CF8F2D8F70F82EAA2021
:102EB00021F00E94D9098E2D24CF8E2D0E9405115C
:102EC0008F2D0E94B509DECE8E2D92EF8916B1F1BD
:102ED000981570F0A0EF8A16D1F0B1EF8B1691F033
:102EE000AA2009F45DC0911083CE8F2D8F712AC066
:102EF000E3EF8E1651F1F4EF8F12F2CF8091AA0515
:102F000082FD2FC08F2D8F71AA20D9F21BC0AA205D
:102F100081F024E0291508F4B5CE2F2D2F7181E022
:102F200090E001C0880F2A95EAF79091D503892790
:102F3000B0CF35E0391508F4A5CEEFCF8F2D8F71C6
:102F4000A110BFCF0E94D9099DCE80E0AA2009F42C
:102F5000A0CF9F2D9F7181E001C0880F9A95EAF75D
:102F600098CFAA2091F08F2D8F71F82E0E94D90949
:102F70008091AA0582FF07C0A8E0FA9EC001112433
:102F80008360809393038F2DDDCF81E00E94C2097F
:102F9000B1E0B91508F076CE82E00E94C20972CE87
:102FA000992059F0893309F0F4CEEFEFF7EE23E0E2
:102FB000E150F0402040E1F7EACE8F2D8F7181CFB4
:102FC00082E0B8E7EB16BCE7FB0609F40ECD87E11B
:102FD000E8168CE7F80609F4D3CD08F0B7CDA1E0E8
:102FE000EA16ACE7FA0609F4C9CDB3E0EB16BCE784
:102FF000FB0609F4BDCDE114ECE7FE0609F050CD67
:103000000E94110E8FEF94E3ACE081509040A040FD
:10301000E1F700C000000E94600AE6E1EE16ECE76E
:10302000FE0609F0DBCC8091B6038A7A91E009F4C0
:1030300090E0909360038111C5CC89E20E94E90879
:103040000E94BC0D31CBF6E1EF16FCE7FF0609F458
:10305000BBCC8091B6038272F701E052F847E531AC
:10306000F10508F011CDE95AFD4D0C949521F701B9
:10307000E851FC47E730F10508F4C5CB109216067D
:10308000C7019057839748F684E090E00E94F121B1
:103090009093AA058093A905F701E150F047E23229
:1030A000F10508F0D2CBE459FD4D0C949521CF9356
:1030B000DF9380919203807F09F04DC0809191034E
:1030C000882309F448C0E09113065091DA05C091B5
:1030D0008D03D0918C0360918E0370918F0347E034
:1030E0005E17C9F18E2F90E0E49FF0011124E552A4
:1030F000FA4F2481222391F1489FF001499FF00D5E
:103100001124DF01A552BA4F11962C9111972C135F
:1031100025C02C912D1322C015962C9115972111A5
:103120001DC012962D913C91261B370B283C310572
:10313000A8F4809192038F70806180939203EF5185
:10314000FA4F80818F70806180838CE893E00E94C9
:103150008E120E941D09DF91CF910895FC013196D6
:10316000E770BECFA4E1B0E0E8EBF8E10C94A82151
:103170008C0186E0F801DE011F9601900D928A9580
:10318000E1F7F8018481E5809CE8A92E93E0B92E4F
:1031900090919003911128C0882319F1EE20F1F04D
:1031A000C8010E94BB0BF82E8823C1F087E0F8010C
:1031B000D50101900D928A95E1F7809190038130BD
:1031C00031F480918C0390918D030E94AE0B0E948C
:1031D00057188F2D6496ECE00C94C421C8010E940E
:1031E0008E12FF24F394F5CFD080C180828093802B
:1031F000F090910320918E0330918F03A401421B24
:10320000530BFF2009F4D9C0483C510508F092C087
:103210008823F9F290918D0380919203282F207FCB
:1032200009F056C0C91214C090918C03D91210C075
:10323000E11048C08F708061809392038CE893E026
:103240000E948E1280919203F8018683F12CC1CFE7
:10325000E11038C06C2D8D2D0E94C8036C2D8D2D72
:103260000E94C803E82E8111F1CFDF86C88A8F85BE
:1032700098890E94AE0B292F22952F70243058F484
:103280009F70223088F0992399F0F8019681907F01
:1032900079F4FE2C9ECF2A5F2F70223068F0C8018F
:1032A0000E948E12EF2CF5CF992311F0882389F319
:1032B000805E883070F3F3CF803F58F3815F8330B6
:1032C00070F7E7CF80919203816080939203BECF25
:1032D000C91207C090918C03D91203C0EE2009F4E3
:1032E0008DC0C8010E94BB0B882309F477CFEE2064
:1032F00009F474CF80919203803288F020918C037E
:1033000030918D03398728879B868A869091900318
:103310009C871D868E87CE0108960E948E1287E0BC
:10332000F801ACE8B3E001900D928A95E1F70E94B4
:10333000571857CF90919203292F207F51F48CE892
:1033400093E00E948E1287E0F50111928A95E9F7C9
:103350007DCF882309F43DCF80918D038C1110C05F
:1033600080918C03D8120CC0E1100AC09683C8016A
:103370000E948E1287E0F50111928A95E9F729CF14
:10338000C8010E94BB0B882309F428CFEE2009F462
:1033900025CF80919203803210F220918C033091DE
:1033A0008D033A8329839C828B82909190039D8325
:1033B0001E828F83CE010196B0CF483C5105D0F6D6
:1033C000882309F40ECFFE2CEE2009F407CF80915C
:1033D0008D038C1120C080918C03D8121CC0809169
:1033E000920380FD0FC0982F907F61F08683903FFD
:1033F00031F0982F907F905F8F70892B8683C80162
:103400000E948E1287E0F801ACE8B3E001900D92C3
:103410008A95E1F7DECEC8010E94BB0B81117FCFF8
:1034200080919203816080939203C8010E948E1262
:10343000D0CEABE1B0E0EFE1FAE10C94B0214E8BDD
:103440005F8B688F798F8A8F9B8F192F91111092C4
:10345000B5031D8A86E0FE017696DE011F96019077
:103460000D928A95E1F70A8D002341F021E04F8506
:10347000588969897A89C8010E94DE0B0B8B1C8BE5
:1034800087E0FE013F96DE01189601900D928A9525
:10349000E1F7CE0108960E94B21881110CC087E0B6
:1034A000FE013896DE01119601900D928A95E1F7A2
:1034B0008C8581110BC017E0809113069091DA057D
:1034C000891331C06B96E4E00C94CC212091DA058D
:1034D00030E0C9010196877099274091130648177B
:1034E000190699F097E0929FD001939FB00D112497
:1034F000A552BA4FFE01319601900D929A95E1F7CF
:103500008093DA050E941D09D6CF0E94110E1092F9
:10351000DA051092130687E0ECE8F3E0DF011D9274
:103520008A95E9F7C8CF819FC001112485529A4F2F
:103530000E94B218882331F28091130690E0019620
:103540008770992780931306B7CFA6E0B0E0EBEA27
:10355000FAE10C94B0210E9460058C018091B803BF
:103560009091B9038017910781F019821A820E9405
:103570006005682F49815A81792F80E090E00E9490
:10358000191A1093B9030093B8032696E4E00C943B
:10359000CC21A8E1B0E0EFECFAE10C94A6218E0179
:1035A0000F5F1F4F88E1D8011D928A95E9F72BE440
:1035B000E22E21E0F22ECC24C394D12C88248394D3
:1035C000912C50E6A52E51E0B52EF70181917F0197
:1035D0008F3F09F449C0F894E82FE295EF70F0E0CE
:1035E00021A18F70A40102C0440F551F8A95E2F7F4
:1035F000CA01922F982B91A392A18095892382A32F
:10360000789400C094E5692E91E0792EF801A60126
:1036100040955095D3016D913D01808191816F3F1F
:1036200009F463C0262F22952F7030E0D9019096BF
:103630002C9130E06F7002C0359527956A95E2F7BE
:1036400020FD53C08C299D29918380833296A61436
:10365000B70401F7F701319780818F3F11F00E9485
:103660009D06B0EABA95F1F7CC0CDD1CE4E5EE1648
:10367000E1E0FE0609F0A9CF48E150E0B8018DEB8A
:1036800093E00E942B22892B99F188E1F801ADEBA0
:10369000B3E001900D928A95E1F781E08093BC033D
:1036A0000E9460059093BB038093BA038091BA0394
:1036B0009091BB030E9445050597F0F048E150E06A
:1036C0006DEB73E083EF93E00E942B22892BC9F00E
:1036D00088E1EDEBF3E0A3EFB3E001900D928A9562
:1036E000E1F781E01092BC0308C084239523ACCF9E
:1036F0008091BC038111DACF80E06896EEE00C94F3
:10370000C22180E0EFCFA8E0B0E0E9E8FBE10C9453
:10371000B22166EE7EEF90E080E00E94252260E01C
:1037200082E090E00E94072260E083E090E00E9447
:1037300007221092B70360E074E184E090E00E94F9
:10374000252260E086E090E00E9407226FEF87E08C
:1037500090E00E94072240E050E0BA0188E090E04B
:103760000E94192260E084E290E00E94072260E05B
:1037700087E190E00E94072260E08CE090E00E94E8
:10378000072260E08DE090E00E94072219821A82F1
:103790001B821C821D821E821F82188648E050E018
:1037A00068E170E0CE0101960E94F72140E050E010
:1037B000BA0180E290E00E94192280E00E94190B79
:1037C0000E94320B40E050E0BA018FE090E00E948E
:1037D000192240E050E0BA0183E190E00E941922F2
:1037E0002896E2E00C94CE211F920F920FB60F9212
:1037F00011242F933F934F935F936F937F938F93F6
:103800009F93AF93BF93CF93DF93EF93FF93D091A9
:10381000E900DF708091EC00C82FC17080FDC0E826
:103820001092E9008091F000877F8093F0007894F7
:103830000E94310E1092E9008091F0008860809320
:10384000F000CD2BCF70C093E900FF91EF91DF9195
:10385000CF91BF91AF919F918F917F916F915F9128
:103860004F913F912F910F900FBE0F901F90189581
:103870001F920F920FB60F9211242F933F934F93E5
:103880005F936F937F938F939F93AF93BF93EF93C8
:10389000FF938091E10082FF09C08091E20082FFE6
:1038A00005C08091E1008B7F8093E1008091DA0078
:1038B00080FF24C08091D80080FF20C08091DA0072
:1038C0008E7F8093DA008091D90080FF9DC080E1D7
:1038D00089BD82E189BD09B400FEFDCF81E08093FE
:1038E000D0058091AB05811109C00E94E7030E94B9
:1038F00088048091E20084608093E2008091E1007E
:1039000080FF17C08091E20080FF13C08091E20029
:103910008E7F8093E2008091E20080618093E200DC
:103920008091D80080628093D80019BC85E0809394
:10393000D0058091E10084FF2BC08091E20084FFDC
:1039400027C080E189BD82E189BD89B5982F91703A
:1039500080FFFBCF8091D8008F7D8093D80080912D
:10396000E1008F7E8093E1008091E2008F7E809362
:10397000E2008091E20081608093E2008091D105B5
:10398000882309F447C084E08093D0058091D00556
:103990008091E10083FF27C08091E20083FF23C074
:1039A0008091E100877F8093E10082E08093D005E1
:1039B0001092D1058091E1008E7F8093E10080918B
:1039C000E2008E7F8093E2008091E200806180932C
:1039D000E20042E060E080E00E9456048091F00046
:1039E00088608093F000FF91EF91BF91AF919F911C
:1039F0008F917F916F915F914F913F912F910F9098
:103A00000FBE0F901F90189519BC1092D005109200
:103A1000AB0574CF8091E30087FD93E09093D005D0
:103A2000B5CF78941F921FB61F9211248F939F9346
:103A3000AF93BF938091A5059091A605A091A7058E
:103A4000B091A8050196A11DB11D8093A505909385
:103A5000A605A093A705B093A805BF91AF919F912C
:103A60008F911F901FBE1F9018951F921FB61F9217
:103A700011248F939F93AF93BF938091A4058111DD
:103A800013C08091A5059091A605A091A705B091BE
:103A9000A8054196A11DB11D8093A5059093A6058B
:103AA000A093A705B093A805BF91AF919F918F9167
:103AB0001F901FBE1F901895CDB7DEB7A6970FB603
:103AC000F894DEBF0FBECDBF85B7806885BF85B7D0
:103AD000806885BF84B7877F84BF0FB6F894A895A8
:103AE00080916000886180936000109260000FBE3A
:103AF00080E890E00FB6F8948093610090936100A5
:103B00000FBE8BE996E090933F0380933E030E94A3
:103B1000E7030E9488048091E20084608093E200C1
:103B200078948091D0058823A1F01091E9001F704E
:103B30009091EC00892F817090FD80E8182B1092F5
:103B4000E9008091E80083FD0E94310E1F70109300
:103B5000E90082E084BD93E095BD9AEF97BD809324
:103B60006E000E94030C811102C00E94320B0BE414
:103B700011E0D8018D918D018F3F11F00E949D06BB
:103B8000B1E004351B07A9F704E511E0A0E6EA2E31
:103B9000A1E0FA2EF80181918F018F3F11F00E9470
:103BA0009D06E016F106B1F788E1E3EFF3E0DF01EF
:103BB000282F1D922A95E9F7EDEBF3E0DF011D9226
:103BC0008A95E9F70E94B00D811102C00E94831B03
:103BD00082E090E00E94E9218093D60384E090E0A7
:103BE0000E94F1219093AA058093A9050E94C91A09
:103BF000BFEFE6E7F1E0B150E040F040E1F700C090
:103C000000000E94C91A8091FD0380FF08C06FEF79
:103C10007FEF90E080E00E9425220E94600A83E00E
:103C200090E00E94E9210E94E5093E9A469A3F9A57
:103C3000479A259A2D9A0E94B00D811104C00E94C6
:103C4000831B0E94850D81E08093330448E050E09F
:103C500068E170E084E394E00E94D921109233047B
:103C6000809134048C7F11F40E94850D80E091E0F6
:103C70009093A1058093A005E8E14E2E512CFFEE14
:103C80006F2EF3E07F2E8091D00500E112E18530A8
:103C900009F492C00E94C91A67EDA62E63E0B62E01
:103CA00073EF872E73E0972ED401F50121913191A6
:103CB0008D919D916E167F0609F48AC028173907E9
:103CC000A9F3312CD4010D911D914D01F501C19045
:103CD000D1905F01C016D10661F1C026D126212CFA
:103CE000EE24E394F12CC6018E219F21892BB9F09B
:103CF00029A23AA20E9460059CA38BA3F1E0FDA338
:103D000091E098012E213F21232B09F490E09EA3FE
:103D100049A15AA16BA17CA18DA10E94191A2394DB
:103D2000EE0CFF1C29E02212DECFF5013297118341
:103D3000008333948CE03812C5CF0E9454054EC0E6
:103D40008091D005843039F10E94270C80E00E94D8
:103D5000E8091092A40520E40FB6F894A8954092C3
:103D600060000FBE2093600083B7817F846083BFB3
:103D700083B7816083BF7894889583B78E7F83BF34
:103D80000FB6F894A89580916000886180936000D8
:103D9000109260000FBE8091CF05882369F00E94C9
:103DA000C91AE3EFF3E081919191892B09F08AC25E
:103DB00084E0EB30F807B9F78091D005853009F43D
:103DC000BFCF0E94110E0E94B6050E94E80962CF83
:103DD0002817390709F075CF0E94A51A0E94270CF1
:103DE00087E190E00E94E921813039F50091F003EC
:103DF0001091F103C8010E944505853F914010F4E0
:103E0000012BD9F48091EF03882319F0815080931E
:103E1000EF038091EF03853618F081508093EF0314
:103E20008091EF03873918F082508093EF030E944E
:103E300060059093F1038093F0030E94B605182F5C
:103E40008091F203181739F01093F2030E94540581
:103E5000812F0E94E8098091D005843009F013CFAA
:103E600083E08093E9008091E80082FF0CCF80918D
:103E7000E80090E085FF05C00E9406048823A1F0B9
:103E800091E08091E8008B778093E800992309F412
:103E9000FACE8981EFEFE80FE83208F0ABC0F0E02E
:103EA000E257FD4D0C94952100E210E0FE013196A1
:103EB0007F018091E80085FD0AC08091E8008B7742
:103EC0008093E8000E940604882399F3D9CF80915B
:103ED000F100D7018D937D010150110951F7D0CF29
:103EE00081E280930B0410920C0485E180930D0411
:103EF00010920E040BC082E280930B04B1E0B093E9
:103F00000C0410920D0484E080930E0440E250E013
:103F10006BE074E082E00E94FA0940E250E0BE01EA
:103F20006F5F7F4F82E00E94FA09ADCE83E28093FB
:103F30000B0410920C0410920D04DACFDB80E9E040
:103F4000ED15D8F0CA808E010F5F1F4FEC2CF12CBD
:103F50000D5F1F4F8E2D8C198D15F8F6D801129616
:103F60002C91129711964C9111976C91C7010E9458
:103F7000D405BFEFEB1AFB0AEBCF8EEF80930C0456
:103F8000C5CF60E082E00E945C06C7CF0E948C062D
:103F9000E1E0E093330448E050E068E170E084E35E
:103FA00094E00E94D9211092330480913404982F18
:103FB000937009F4B2CF60E086958695E4CF87E2EE
:103FC00080930B0486E7DACF88E280930B0482E0CB
:103FD00080930C0440E250E06BE074E09CCF1A82C6
:103FE0008CE08B839ACF8A81823009F481C128F4D6
:103FF000813061F08FEF898390CF833081F08430FE
:10400000C9F71B821C821D821E8287CF0E94540525
:104010000E949B216B837C838D839E837ECF2B812B
:10402000822F90E0FE013196225F8C30910508F0DE
:1040300074CFDC01AA0FBB1FAD50BC4F3C91119651
:104040004C9143833483019632962813EECF65CF8B
:104050008A81823059F0853069F680913404F1E02C
:104060008F278093340410920D0157CF6B817C8190
:104070008D819E810E949B2188E290E00E94072210
:104080004CCF4C816B818A810E94420B98278927F3
:1040900098279E838D8341CF2D813E813227232710
:1040A00032274C816B818A810E94BB0A36CF0E94E5
:1040B000E10A33CF9A81933009F09CCF883009F41C
:1040C0003BC0893009F465C08B818230E9F088F407
:1040D000813009F022CF4C8120E5429F412D1124EF
:1040E0008091350420E06091360490E00E94FB0549
:1040F00014CF8330E9F0843009F00FCF8C8120E0B9
:10410000409137046D81F1CF8C81811103C00E94F1
:104110008C0603CF90913404937011F410920D012A
:10412000909134049C7F91609093340460E02BCF95
:104130008C8180933804F1CE8B818230E1F078F469
:10414000813009F0EACE809137042FEF829FC001C1
:10415000112460E570E00E9481216C83DECE833003
:10416000A9F0843009F0D9CE809135048C838091F8
:1041700036048D83D2CE80913404982F9370869527
:104180008695911101C080E08C83C7CE8091380460
:10419000FBCF0E941C0CC1CE80E18A83BECE1A8266
:1041A00087E71FCFCA80DB80DC24CD24DC248E018E
:1041B0000F5F1F4FEC80E00EF12EF11CC6018757F8
:1041C0009C4F0E151F0509F4A8CEA7E7CA16D10407
:1041D00050F40E94E921F8018483BFEFCB1ADB0A77
:1041E0000F5F1F4FEBCFD80114961C92F6CF0A81B8
:1041F0001B81102701271027FE0131966F01EC80EB
:10420000E00EF12EF11CC80187579C4F0E151F05BB
:1042100009F483CE0737110528F4D60114966C9162
:104220000E940722BFEFCB1ADB0A0F5F1F4FEBCFB5
:104230000E94AB0A72CE84E0B0CFCA80DB80DC245F
:10424000CD24DC248E010F5F1F4FEC80E00EF12E99
:10425000F11CC60189960E151F0509F45ECEE0E635
:10426000CE16E3E0DE0658F40E94E921D801149648
:104270008C93FFEFCF1ADF0A0F5F1F4FEACFF801D1
:104280001482F7CF0A811B81102701271027CE0146
:1042900001966C01EC80E00EF12EF11CC8018996AC
:1042A0000E151F0509F439CE0036A3E01A0720F4D5
:1042B000F60164810E940722FFEFCF1ADF0A0F5F29
:1042C0001F4FECCF09BD19BD09B400FEFDCF809191
:1042D000D8008F7D8093D8008091E0008260809329
:1042E000E0008091E00081FDFCCF0E94110E64CDC2
:1042F00088E290E00E94E9211B821C821D828E834D
:104300000CCEAA1BBB1B51E107C0AA1FBB1FA617DF
:10431000B70710F0A61BB70B881F991F5A95A9F76E
:1043200080959095BC01CD010895EE0FFF1F05907B
:10433000F491E02D09946927962769277827872724
:10434000782708952F923F924F925F926F927F92BB
:104350008F929F92AF92BF92CF92DF92EF92FF9295
:104360000F931F93CF93DF93CDB7DEB7CA1BDB0B41
:104370000FB6F894DEBF0FBECDBF09942A883988E6
:1043800048885F846E847D848C849B84AA84B984ED
:10439000C884DF80EE80FD800C811B81AA81B981F9
:1043A000CE0FD11D0FB6F894DEBF0FBECDBFED010D
:1043B0000895DC01CB01FC01F999FECF06C0F2BDE6
:1043C000E1BDF89A319600B40D9241505040B8F7D3
:1043D0000895F999FECF92BD81BDF89A992780B5CD
:1043E0000895A8E1B0E042E050E00C94DB21DC014C
:1043F000A40FB51F4150504048F0CB01840F951FCA
:104400002E910E94082241505040D0F70895262F47
:10441000F999FECF92BD81BDF89A019700B40216BA
:1044200039F01FBA20BD0FB6F894FA9AF99A0FBE68
:1044300008950396272F0E9408220E940722252F05
:104440000E940822242F0C9408220196272F0E94F4
:1044500008220C940722FB01DC0104C08D9101901D
:10446000801921F441505040C8F7881B990B0895DA
:10447000F894FFCF120F3A0FDD103A0FDD106D0FD9
:104480008E0FDD108C1099101214161407140E14D0
:104490001A141E142214DE15DE1518161816CD1661
:1044A000421642164216E716541764176417FD1495
:1044B0000B15121517151C15211526152B15301562
:1044C00035153A153F1554135413541354135413FC
:1044D00054135413541354135F14D4146714311425
:1044E00035146B1439146F147B144514CD1449140E
:1044F0007F144D148314AB1451148714B214571441
:104500008D1495143D147314411477145B14911495
:10451000A114BB14CB142B146314DB14EF1FF31F73
:10452000282041204C2057205A205A205A20FA1F78
:10453000FA1FCC20CF20D220F72018211B211D21CB
:104540004221FA1FFA1FFA1FFA1FFA1FFA1FFA1F59
:10455000FA1FFA1FFA1FFA1FFA1FFA1F701F7B1F9C
:0C456000961F9E1FC11FC61FDF1FE41F17
:10456C0042053C0A4105350AFFFF00FF000301002C
:10457C00FF50818283E200E900EA00B500B600B783
:10458C0000CD008301CC008A019201940121022309
:10459C000224022502260227022A02B300B4006F6D
:1045AC000070009F01CB019F02A002909192939505
:1045BC00949697343733323130C6F0F1F4F5F6F780
:1045CC0000010203040506070809FF0A0B0C0D0E77
:1045DC000F101112131415161718191A1B1C1D1E67
:1045EC001F202122232425262728292A2B2C2D2E57
:1045FC002F30313233343536373839FF3AFFFFFF3D
:10460C003B3C3D3E3F404142434445FF46474849C1
:10461C004AFF4B4C4D4E4F505152535455FF565729
:10462C0058595A5B5C5D5E5F6061626301010C010D
:10463C001801250131013D014901550161016D014F
:10464C007B0188019401A001AC01B801C401D20125
:10465C00E001010D0E0D190D260D320D3F0D4B0D08
:10466C00580D640D710D7D0D8A0D960DA60DB80DAE
:10467C00C40DD20DE00D051912191E192B1937197D
:10468C00441950195D196919761982198F199B19DA
:10469C00A919BB19C719D319E01F082518252425FA
:1046AC0031253D254A25562563256F257C258825F2
:1046BC009B25A725BB25C725D3250A3118312431C5
:1046CC0031313D314A31563163316F317C31883172
:1046DC009B31AA31BB31C731D331E037023C1C3C92
:1046EC001F3C503C783C8A3C9A3CAA3FB73FC33FA6
:1046FC00D33CD33C02010F011901260134014101C5
:10470C004E015C0169017701840191019E01AC01AC
:10471C00B901C601D301E001040404040404040437
:10472C00040404040404040404040404040404043D
:10473C00040404040404040404040404040404042D
:10474C00040404040404040404040404040404041D
:10475C00040404040404040404040404040404040D
:10476C0004040404040404040404040404040404FD
:10477C0004040404040404040404040402020202F5
:10478C00020202020202020202020202020240229F
:0E479C006D3B011901AC009D06B606D6060065
:00000001FF
